{
  "_format": "hh-sol-artifact-1",
  "contractName": "ECIONFTCore",
  "sourceName": "contracts/ECIONFTCore.sol",
  "abi": [
    {
      "anonymous": false,
      "inputs": [
        {
          "indexed": true,
          "internalType": "address",
          "name": "owner",
          "type": "address"
        },
        {
          "indexed": true,
          "internalType": "address",
          "name": "approved",
          "type": "address"
        },
        {
          "indexed": true,
          "internalType": "uint256",
          "name": "tokenId",
          "type": "uint256"
        }
      ],
      "name": "Approval",
      "type": "event"
    },
    {
      "anonymous": false,
      "inputs": [
        {
          "indexed": true,
          "internalType": "address",
          "name": "owner",
          "type": "address"
        },
        {
          "indexed": true,
          "internalType": "address",
          "name": "operator",
          "type": "address"
        },
        {
          "indexed": false,
          "internalType": "bool",
          "name": "approved",
          "type": "bool"
        }
      ],
      "name": "ApprovalForAll",
      "type": "event"
    },
    {
      "anonymous": false,
      "inputs": [
        {
          "indexed": true,
          "internalType": "bytes32",
          "name": "role",
          "type": "bytes32"
        },
        {
          "indexed": true,
          "internalType": "bytes32",
          "name": "previousAdminRole",
          "type": "bytes32"
        },
        {
          "indexed": true,
          "internalType": "bytes32",
          "name": "newAdminRole",
          "type": "bytes32"
        }
      ],
      "name": "RoleAdminChanged",
      "type": "event"
    },
    {
      "anonymous": false,
      "inputs": [
        {
          "indexed": true,
          "internalType": "bytes32",
          "name": "role",
          "type": "bytes32"
        },
        {
          "indexed": true,
          "internalType": "address",
          "name": "account",
          "type": "address"
        },
        {
          "indexed": true,
          "internalType": "address",
          "name": "sender",
          "type": "address"
        }
      ],
      "name": "RoleGranted",
      "type": "event"
    },
    {
      "anonymous": false,
      "inputs": [
        {
          "indexed": true,
          "internalType": "bytes32",
          "name": "role",
          "type": "bytes32"
        },
        {
          "indexed": true,
          "internalType": "address",
          "name": "account",
          "type": "address"
        },
        {
          "indexed": true,
          "internalType": "address",
          "name": "sender",
          "type": "address"
        }
      ],
      "name": "RoleRevoked",
      "type": "event"
    },
    {
      "anonymous": false,
      "inputs": [
        {
          "indexed": true,
          "internalType": "address",
          "name": "from",
          "type": "address"
        },
        {
          "indexed": true,
          "internalType": "address",
          "name": "to",
          "type": "address"
        },
        {
          "indexed": true,
          "internalType": "uint256",
          "name": "tokenId",
          "type": "uint256"
        }
      ],
      "name": "Transfer",
      "type": "event"
    },
    {
      "inputs": [],
      "name": "ADMIN_A_ROLE",
      "outputs": [
        {
          "internalType": "bytes32",
          "name": "",
          "type": "bytes32"
        }
      ],
      "stateMutability": "view",
      "type": "function"
    },
    {
      "inputs": [],
      "name": "ADMIN_B_ROLE",
      "outputs": [
        {
          "internalType": "bytes32",
          "name": "",
          "type": "bytes32"
        }
      ],
      "stateMutability": "view",
      "type": "function"
    },
    {
      "inputs": [],
      "name": "DEFAULT_ADMIN_ROLE",
      "outputs": [
        {
          "internalType": "bytes32",
          "name": "",
          "type": "bytes32"
        }
      ],
      "stateMutability": "view",
      "type": "function"
    },
    {
      "inputs": [],
      "name": "MINTER_ROLE",
      "outputs": [
        {
          "internalType": "bytes32",
          "name": "",
          "type": "bytes32"
        }
      ],
      "stateMutability": "view",
      "type": "function"
    },
    {
      "inputs": [
        {
          "internalType": "address",
          "name": "_address",
          "type": "address"
        }
      ],
      "name": "addOperatorAddress",
      "outputs": [],
      "stateMutability": "nonpayable",
      "type": "function"
    },
    {
      "inputs": [
        {
          "internalType": "address",
          "name": "_to",
          "type": "address"
        },
        {
          "internalType": "uint256",
          "name": "_tokenId",
          "type": "uint256"
        }
      ],
      "name": "approve",
      "outputs": [],
      "stateMutability": "nonpayable",
      "type": "function"
    },
    {
      "inputs": [
        {
          "internalType": "address",
          "name": "owner",
          "type": "address"
        }
      ],
      "name": "balanceOf",
      "outputs": [
        {
          "internalType": "uint256",
          "name": "",
          "type": "uint256"
        }
      ],
      "stateMutability": "view",
      "type": "function"
    },
    {
      "inputs": [
        {
          "internalType": "uint256",
          "name": "tokenId",
          "type": "uint256"
        }
      ],
      "name": "burn",
      "outputs": [],
      "stateMutability": "nonpayable",
      "type": "function"
    },
    {
      "inputs": [
        {
          "internalType": "uint256",
          "name": "tokenId",
          "type": "uint256"
        }
      ],
      "name": "getApproved",
      "outputs": [
        {
          "internalType": "address",
          "name": "",
          "type": "address"
        }
      ],
      "stateMutability": "view",
      "type": "function"
    },
    {
      "inputs": [
        {
          "internalType": "bytes32",
          "name": "role",
          "type": "bytes32"
        }
      ],
      "name": "getRoleAdmin",
      "outputs": [
        {
          "internalType": "bytes32",
          "name": "",
          "type": "bytes32"
        }
      ],
      "stateMutability": "view",
      "type": "function"
    },
    {
      "inputs": [
        {
          "internalType": "bytes32",
          "name": "role",
          "type": "bytes32"
        },
        {
          "internalType": "address",
          "name": "account",
          "type": "address"
        }
      ],
      "name": "grantRole",
      "outputs": [],
      "stateMutability": "nonpayable",
      "type": "function"
    },
    {
      "inputs": [
        {
          "internalType": "bytes32",
          "name": "role",
          "type": "bytes32"
        },
        {
          "internalType": "address",
          "name": "account",
          "type": "address"
        }
      ],
      "name": "hasRole",
      "outputs": [
        {
          "internalType": "bool",
          "name": "",
          "type": "bool"
        }
      ],
      "stateMutability": "view",
      "type": "function"
    },
    {
      "inputs": [],
      "name": "initialize",
      "outputs": [],
      "stateMutability": "nonpayable",
      "type": "function"
    },
    {
      "inputs": [
        {
          "internalType": "address",
          "name": "owner",
          "type": "address"
        },
        {
          "internalType": "address",
          "name": "operator",
          "type": "address"
        }
      ],
      "name": "isApprovedForAll",
      "outputs": [
        {
          "internalType": "bool",
          "name": "",
          "type": "bool"
        }
      ],
      "stateMutability": "view",
      "type": "function"
    },
    {
      "inputs": [
        {
          "internalType": "address",
          "name": "_to",
          "type": "address"
        },
        {
          "internalType": "string",
          "name": "_partCode",
          "type": "string"
        },
        {
          "internalType": "uint256",
          "name": "_tokenId",
          "type": "uint256"
        },
        {
          "internalType": "uint256",
          "name": "_createdAt",
          "type": "uint256"
        }
      ],
      "name": "migrateNFTV1",
      "outputs": [],
      "stateMutability": "nonpayable",
      "type": "function"
    },
    {
      "inputs": [],
      "name": "name",
      "outputs": [
        {
          "internalType": "string",
          "name": "",
          "type": "string"
        }
      ],
      "stateMutability": "view",
      "type": "function"
    },
    {
      "inputs": [
        {
          "internalType": "address",
          "name": "",
          "type": "address"
        }
      ],
      "name": "operators",
      "outputs": [
        {
          "internalType": "bool",
          "name": "",
          "type": "bool"
        }
      ],
      "stateMutability": "view",
      "type": "function"
    },
    {
      "inputs": [
        {
          "internalType": "uint256",
          "name": "tokenId",
          "type": "uint256"
        }
      ],
      "name": "ownerOf",
      "outputs": [
        {
          "internalType": "address",
          "name": "",
          "type": "address"
        }
      ],
      "stateMutability": "view",
      "type": "function"
    },
    {
      "inputs": [
        {
          "internalType": "address",
          "name": "_address",
          "type": "address"
        }
      ],
      "name": "removeOperatorAddress",
      "outputs": [],
      "stateMutability": "nonpayable",
      "type": "function"
    },
    {
      "inputs": [
        {
          "internalType": "bytes32",
          "name": "role",
          "type": "bytes32"
        },
        {
          "internalType": "address",
          "name": "account",
          "type": "address"
        }
      ],
      "name": "renounceRole",
      "outputs": [],
      "stateMutability": "nonpayable",
      "type": "function"
    },
    {
      "inputs": [
        {
          "internalType": "bytes32",
          "name": "role",
          "type": "bytes32"
        },
        {
          "internalType": "address",
          "name": "account",
          "type": "address"
        }
      ],
      "name": "revokeRole",
      "outputs": [],
      "stateMutability": "nonpayable",
      "type": "function"
    },
    {
      "inputs": [
        {
          "internalType": "address",
          "name": "_to",
          "type": "address"
        },
        {
          "internalType": "string",
          "name": "_partCode",
          "type": "string"
        }
      ],
      "name": "safeMint",
      "outputs": [],
      "stateMutability": "nonpayable",
      "type": "function"
    },
    {
      "inputs": [
        {
          "internalType": "address",
          "name": "from",
          "type": "address"
        },
        {
          "internalType": "address",
          "name": "to",
          "type": "address"
        },
        {
          "internalType": "uint256",
          "name": "tokenId",
          "type": "uint256"
        }
      ],
      "name": "safeTransferFrom",
      "outputs": [],
      "stateMutability": "nonpayable",
      "type": "function"
    },
    {
      "inputs": [
        {
          "internalType": "address",
          "name": "from",
          "type": "address"
        },
        {
          "internalType": "address",
          "name": "to",
          "type": "address"
        },
        {
          "internalType": "uint256",
          "name": "tokenId",
          "type": "uint256"
        },
        {
          "internalType": "bytes",
          "name": "_data",
          "type": "bytes"
        }
      ],
      "name": "safeTransferFrom",
      "outputs": [],
      "stateMutability": "nonpayable",
      "type": "function"
    },
    {
      "inputs": [
        {
          "internalType": "address",
          "name": "_operator",
          "type": "address"
        },
        {
          "internalType": "bool",
          "name": "_approved",
          "type": "bool"
        }
      ],
      "name": "setApprovalForAll",
      "outputs": [],
      "stateMutability": "nonpayable",
      "type": "function"
    },
    {
      "inputs": [
        {
          "internalType": "bytes4",
          "name": "interfaceId",
          "type": "bytes4"
        }
      ],
      "name": "supportsInterface",
      "outputs": [
        {
          "internalType": "bool",
          "name": "",
          "type": "bool"
        }
      ],
      "stateMutability": "view",
      "type": "function"
    },
    {
      "inputs": [],
      "name": "symbol",
      "outputs": [
        {
          "internalType": "string",
          "name": "",
          "type": "string"
        }
      ],
      "stateMutability": "view",
      "type": "function"
    },
    {
      "inputs": [
        {
          "internalType": "uint256",
          "name": "_tokenId",
          "type": "uint256"
        }
      ],
      "name": "tokenInfo",
      "outputs": [
        {
          "internalType": "string",
          "name": "",
          "type": "string"
        },
        {
          "internalType": "uint256",
          "name": "",
          "type": "uint256"
        }
      ],
      "stateMutability": "view",
      "type": "function"
    },
    {
      "inputs": [
        {
          "internalType": "uint256",
          "name": "_tokenId",
          "type": "uint256"
        }
      ],
      "name": "tokenURI",
      "outputs": [
        {
          "internalType": "string",
          "name": "",
          "type": "string"
        }
      ],
      "stateMutability": "view",
      "type": "function"
    },
    {
      "inputs": [
        {
          "internalType": "address",
          "name": "_contractAddress",
          "type": "address"
        },
        {
          "internalType": "address",
          "name": "_to",
          "type": "address"
        },
        {
          "internalType": "uint256",
          "name": "_amount",
          "type": "uint256"
        }
      ],
      "name": "transfer",
      "outputs": [],
      "stateMutability": "nonpayable",
      "type": "function"
    },
    {
      "inputs": [
        {
          "internalType": "address",
          "name": "from",
          "type": "address"
        },
        {
          "internalType": "address",
          "name": "to",
          "type": "address"
        },
        {
          "internalType": "uint256",
          "name": "tokenId",
          "type": "uint256"
        }
      ],
      "name": "transferFrom",
      "outputs": [],
      "stateMutability": "nonpayable",
      "type": "function"
    }
  ],
  "bytecode": "0x608060405234801561001057600080fd5b506127b6806100206000396000f3fe608060405234801561001057600080fd5b50600436106101e55760003560e01c80638129fc1c1161010f578063c87b56dd116100a2578063d547741f11610071578063d547741f1461044e578063e4ada9a814610461578063e8e8adf214610474578063e985e9c51461049b576101e5565b8063c87b56dd146103f2578063cc33c87514610405578063d204c45e14610426578063d539139314610439576101e5565b8063a217fddf116100de578063a217fddf146103b1578063a22cb465146103b9578063b88d4fde146103cc578063beabacc8146103df576101e5565b80638129fc1c1461037b57806388a75ba41461038357806391d148541461039657806395d89b41146103a9576101e5565b80632a4517ab1161018757806342966c681161015657806342966c681461032f57806344ed6a40146103425780636352211e1461035557806370a0823114610368576101e5565b80632a4517ab146102cf5780632f2ff15d146102f657806336568abe1461030957806342842e0e1461031c576101e5565b8063095ea7b3116101c3578063095ea7b31461025257806313e7c9d81461026757806323b872dd1461028b578063248a9ca31461029e576101e5565b806301ffc9a7146101ea57806306fdde0314610212578063081812fc14610227575b600080fd5b6101fd6101f836600461235e565b6104d7565b60405190151581526020015b60405180910390f35b61021a6104ea565b60405161020991906124a3565b61023a610235366004612324565b61057c565b6040516001600160a01b039091168152602001610209565b6102656102603660046122df565b610616565b005b6101fd610275366004612101565b6101306020526000908152604090205460ff1681565b61026561029936600461214d565b61064f565b6102c16102ac366004612324565b600090815260fb602052604090206001015490565b604051908152602001610209565b6102c17f497eb74c51ef7b7eec3496fcc88c6510be8cd4ce8d7ac689259d127b37a0926681565b61026561030436600461233c565b610686565b61026561031736600461233c565b6106ad565b61026561032a36600461214d565b610727565b61026561033d366004612324565b610742565b610265610350366004612283565b6107bc565b61023a610363366004612324565b610816565b6102c1610376366004612101565b61088d565b610265610914565b610265610391366004612101565b610a88565b6101fd6103a436600461233c565b610aba565b61021a610ae5565b6102c1600081565b6102656103c7366004612201565b610af4565b6102656103da366004612188565b610b29565b6102656103ed36600461214d565b610b61565b61021a610400366004612324565b610bfa565b610418610413366004612324565b610c05565b6040516102099291906124b6565b610265610434366004612237565b610cbc565b6102c160008051602061273f83398151915281565b61026561045c36600461233c565b610d4a565b61026561046f366004612101565b610d70565b6102c17f90f35a78080d47835b1e45845ecd86d1aa9d5ca5e1eda8ef3e19bf43de90fd1181565b6101fd6104a936600461211b565b6001600160a01b039182166000908152606a6020908152604080832093909416825291909152205460ff1690565b60006104e282610d9f565b90505b919050565b6060606580546104f99061266e565b80601f01602080910402602001604051908101604052809291908181526020018280546105259061266e565b80156105725780601f1061054757610100808354040283529160200191610572565b820191906000526020600020905b81548152906001019060200180831161055557829003601f168201915b5050505050905090565b6000818152606760205260408120546001600160a01b03166105fa5760405162461bcd60e51b815260206004820152602c60248201527f4552433732313a20617070726f76656420717565727920666f72206e6f6e657860448201526b34b9ba32b73a103a37b5b2b760a11b60648201526084015b60405180910390fd5b506000908152606960205260409020546001600160a01b031690565b6001600160a01b0382166000908152610130602052604090205460ff16151560011461064157600080fd5b61064b8282610dc4565b5050565b61065a335b82610ed5565b6106765760405162461bcd60e51b81526004016105f190612578565b610681838383610fcc565b505050565b600082815260fb60205260409020600101546106a381335b61116c565b61068183836111d0565b6001600160a01b038116331461071d5760405162461bcd60e51b815260206004820152602f60248201527f416363657373436f6e74726f6c3a2063616e206f6e6c792072656e6f756e636560448201526e103937b632b9903337b91039b2b63360891b60648201526084016105f1565b61064b8282611256565b61068183838360405180602001604052806000815250610b29565b61074b33610654565b6107b05760405162461bcd60e51b815260206004820152603060248201527f4552433732314275726e61626c653a2063616c6c6572206973206e6f74206f7760448201526f1b995c881b9bdc88185c1c1c9bdd995960821b60648201526084016105f1565b6107b9816112bd565b50565b60008051602061273f8339815191526107d5813361069e565b6107df85846112c6565b600083815261012f6020908152604090912085516107ff92870190611f84565b5050600091825261012e6020526040909120555050565b6000818152606760205260408120546001600160a01b0316806104e25760405162461bcd60e51b815260206004820152602960248201527f4552433732313a206f776e657220717565727920666f72206e6f6e657869737460448201526832b73a103a37b5b2b760b91b60648201526084016105f1565b60006001600160a01b0382166108f85760405162461bcd60e51b815260206004820152602a60248201527f4552433732313a2062616c616e636520717565727920666f7220746865207a65604482015269726f206164647265737360b01b60648201526084016105f1565b506001600160a01b031660009081526068602052604090205490565b600054610100900460ff168061092d575060005460ff16155b6109495760405162461bcd60e51b81526004016105f19061252a565b600054610100900460ff1615801561096b576000805461ffff19166101011790555b6109b66040518060400160405280600d81526020016c4543494f204e465420436f726560981b815250604051806040016040528060048152602001634543494f60e01b8152506112e0565b6109be611367565b6109c6611367565b6109ce611367565b6109d96000336113ea565b6109f160008051602061273f833981519152336113ea565b610a1b7f90f35a78080d47835b1e45845ecd86d1aa9d5ca5e1eda8ef3e19bf43de90fd11336113ea565b610a457f497eb74c51ef7b7eec3496fcc88c6510be8cd4ce8d7ac689259d127b37a09266336113ea565b60005b610bb8811015610a7357610a6161012d80546001019055565b80610a6b816126a9565b915050610a48565b5080156107b9576000805461ff001916905550565b6000610a94813361069e565b506001600160a01b0316600090815261013060205260409020805460ff19166001179055565b600091825260fb602090815260408084206001600160a01b0393909316845291905290205460ff1690565b6060606680546104f99061266e565b6001600160a01b0382166000908152610130602052604090205460ff161515600114610b1f57600080fd5b61064b82826113f4565b610b333383610ed5565b610b4f5760405162461bcd60e51b81526004016105f190612578565b610b5b848484846114c6565b50505050565b6000610b6d813361069e565b60405163a9059cbb60e01b81526001600160a01b0384811660048301526024820184905285919082169063a9059cbb90604401602060405180830381600087803b158015610bba57600080fd5b505af1158015610bce573d6000803e3d6000fd5b505050506040513d601f19601f82011682018060405250810190610bf29190612308565b505050505050565b60606104e2826114f9565b600081815261012f6020908152604080832061012e90925282205481546060939291908290610c339061266e565b80601f0160208091040260200160405190810160405280929190818152602001828054610c5f9061266e565b8015610cac5780601f10610c8157610100808354040283529160200191610cac565b820191906000526020600020905b815481529060010190602001808311610c8f57829003601f168201915b5050505050915091509150915091565b60008051602061273f833981519152610cd5813361069e565b610ce883610ce361012d5490565b6112c6565b8161012f6000610cf861012d5490565b81526020019081526020016000209080519060200190610d19929190611f84565b504261012e6000610d2a61012d5490565b815260208101919091526040016000205561068161012d80546001019055565b600082815260fb6020526040902060010154610d66813361069e565b6106818383611256565b6000610d7c813361069e565b506001600160a01b0316600090815261013060205260409020805460ff19169055565b60006001600160e01b03198216637965db0b60e01b14806104e257506104e28261166c565b6000610dcf82610816565b9050806001600160a01b0316836001600160a01b03161415610e3d5760405162461bcd60e51b815260206004820152602160248201527f4552433732313a20617070726f76616c20746f2063757272656e74206f776e656044820152603960f91b60648201526084016105f1565b336001600160a01b0382161480610e595750610e5981336104a9565b610ecb5760405162461bcd60e51b815260206004820152603860248201527f4552433732313a20617070726f76652063616c6c6572206973206e6f74206f7760448201527f6e6572206e6f7220617070726f76656420666f7220616c6c000000000000000060648201526084016105f1565b61068183836116bc565b6000818152606760205260408120546001600160a01b0316610f4e5760405162461bcd60e51b815260206004820152602c60248201527f4552433732313a206f70657261746f7220717565727920666f72206e6f6e657860448201526b34b9ba32b73a103a37b5b2b760a11b60648201526084016105f1565b6000610f5983610816565b9050806001600160a01b0316846001600160a01b03161480610f945750836001600160a01b0316610f898461057c565b6001600160a01b0316145b80610fc457506001600160a01b038082166000908152606a602090815260408083209388168352929052205460ff165b949350505050565b826001600160a01b0316610fdf82610816565b6001600160a01b0316146110475760405162461bcd60e51b815260206004820152602960248201527f4552433732313a207472616e73666572206f6620746f6b656e2074686174206960448201526839903737ba1037bbb760b91b60648201526084016105f1565b6001600160a01b0382166110a95760405162461bcd60e51b8152602060048201526024808201527f4552433732313a207472616e7366657220746f20746865207a65726f206164646044820152637265737360e01b60648201526084016105f1565b6110b46000826116bc565b6001600160a01b03831660009081526068602052604081208054600192906110dd908490612614565b90915550506001600160a01b038216600090815260686020526040812080546001929061110b9084906125c9565b909155505060008181526067602052604080822080546001600160a01b0319166001600160a01b0386811691821790925591518493918716917fddf252ad1be2c89b69c2b068fc378daa952ba7f163c4a11628f55a4df523b3ef91a4505050565b6111768282610aba565b61064b5761118e816001600160a01b0316601461172a565b61119983602061172a565b6040516020016111aa9291906123f1565b60408051601f198184030181529082905262461bcd60e51b82526105f1916004016124a3565b6111da8282610aba565b61064b57600082815260fb602090815260408083206001600160a01b03851684529091529020805460ff191660011790556112123390565b6001600160a01b0316816001600160a01b0316837f2f8788117e7eff1d82e926ec794901d17c78024a50270940304540a733656f0d60405160405180910390a45050565b6112608282610aba565b1561064b57600082815260fb602090815260408083206001600160a01b0385168085529252808320805460ff1916905551339285917ff6391f5c32d9c69d2a47ea670b442974b53935d1edc7fd64eb21e047a839171b9190a45050565b6107b981611913565b61064b828260405180602001604052806000815250611953565b600054610100900460ff16806112f9575060005460ff16155b6113155760405162461bcd60e51b81526004016105f19061252a565b600054610100900460ff16158015611337576000805461ffff19166101011790555b61133f611986565b611347611986565b61135183836119f0565b8015610681576000805461ff0019169055505050565b600054610100900460ff1680611380575060005460ff16155b61139c5760405162461bcd60e51b81526004016105f19061252a565b600054610100900460ff161580156113be576000805461ffff19166101011790555b6113c6611986565b6113ce611986565b6113d6611986565b80156107b9576000805461ff001916905550565b61064b82826111d0565b6001600160a01b03821633141561144d5760405162461bcd60e51b815260206004820152601960248201527f4552433732313a20617070726f766520746f2063616c6c65720000000000000060448201526064016105f1565b336000818152606a602090815260408083206001600160a01b0387168085529252909120805460ff1916841515179055906001600160a01b03167f17307eab39ab6107e8899845ad3d59bd9653f200f220920489ca2b5937696c31836040516114ba911515815260200190565b60405180910390a35050565b6114d1848484610fcc565b6114dd84848484611a85565b610b5b5760405162461bcd60e51b81526004016105f1906124d8565b6000818152606760205260409020546060906001600160a01b031661157a5760405162461bcd60e51b815260206004820152603160248201527f45524337323155524953746f726167653a2055524920717565727920666f72206044820152703737b732bc34b9ba32b73a103a37b5b2b760791b60648201526084016105f1565b600082815260c96020526040812080546115939061266e565b80601f01602080910402602001604051908101604052809291908181526020018280546115bf9061266e565b801561160c5780601f106115e15761010080835404028352916020019161160c565b820191906000526020600020905b8154815290600101906020018083116115ef57829003601f168201915b50505050509050600061161d611b92565b9050805160001415611631575090506104e5565b81511561166357808260405160200161164b9291906123c2565b604051602081830303815290604052925050506104e5565b610fc484611bb2565b60006001600160e01b031982166380ac58cd60e01b148061169d57506001600160e01b03198216635b5e139f60e01b145b806104e257506301ffc9a760e01b6001600160e01b03198316146104e2565b600081815260696020526040902080546001600160a01b0319166001600160a01b03841690811790915581906116f182610816565b6001600160a01b03167f8c5be1e5ebec7d5bd14f71427d1e84f3dd0314c0f7b2291e5b200ac8c7c3b92560405160405180910390a45050565b606060006117398360026125f5565b6117449060026125c9565b67ffffffffffffffff81111561176a57634e487b7160e01b600052604160045260246000fd5b6040519080825280601f01601f191660200182016040528015611794576020820181803683370190505b509050600360fc1b816000815181106117bd57634e487b7160e01b600052603260045260246000fd5b60200101906001600160f81b031916908160001a905350600f60fb1b816001815181106117fa57634e487b7160e01b600052603260045260246000fd5b60200101906001600160f81b031916908160001a905350600061181e8460026125f5565b6118299060016125c9565b90505b60018111156118bd576f181899199a1a9b1b9c1cb0b131b232b360811b85600f166010811061186b57634e487b7160e01b600052603260045260246000fd5b1a60f81b82828151811061188f57634e487b7160e01b600052603260045260246000fd5b60200101906001600160f81b031916908160001a90535060049490941c936118b681612657565b905061182c565b50831561190c5760405162461bcd60e51b815260206004820181905260248201527f537472696e67733a20686578206c656e67746820696e73756666696369656e7460448201526064016105f1565b9392505050565b61191c81611c8c565b600081815260c96020526040902080546119359061266e565b1590506107b957600081815260c9602052604081206107b991612008565b61195d8383611d27565b61196a6000848484611a85565b6106815760405162461bcd60e51b81526004016105f1906124d8565b600054610100900460ff168061199f575060005460ff16155b6119bb5760405162461bcd60e51b81526004016105f19061252a565b600054610100900460ff161580156113d6576000805461ffff191661010117905580156107b9576000805461ff001916905550565b600054610100900460ff1680611a09575060005460ff16155b611a255760405162461bcd60e51b81526004016105f19061252a565b600054610100900460ff16158015611a47576000805461ffff19166101011790555b8251611a5a906065906020860190611f84565b508151611a6e906066906020850190611f84565b508015610681576000805461ff0019169055505050565b60006001600160a01b0384163b15611b8757604051630a85bd0160e11b81526001600160a01b0385169063150b7a0290611ac9903390899088908890600401612466565b602060405180830381600087803b158015611ae357600080fd5b505af1925050508015611b13575060408051601f3d908101601f19168201909252611b109181019061237a565b60015b611b6d573d808015611b41576040519150601f19603f3d011682016040523d82523d6000602084013e611b46565b606091505b508051611b655760405162461bcd60e51b81526004016105f1906124d8565b805181602001fd5b6001600160e01b031916630a85bd0160e11b149050610fc4565b506001949350505050565b606060405180606001604052806022815260200161275f60229139905090565b6000818152606760205260409020546060906001600160a01b0316611c315760405162461bcd60e51b815260206004820152602f60248201527f4552433732314d657461646174613a2055524920717565727920666f72206e6f60448201526e3732bc34b9ba32b73a103a37b5b2b760891b60648201526084016105f1565b6000611c3b611b92565b90506000815111611c5b576040518060200160405280600081525061190c565b80611c6584611e69565b604051602001611c769291906123c2565b6040516020818303038152906040529392505050565b6000611c9782610816565b9050611ca46000836116bc565b6001600160a01b0381166000908152606860205260408120805460019290611ccd908490612614565b909155505060008281526067602052604080822080546001600160a01b0319169055518391906001600160a01b038416907fddf252ad1be2c89b69c2b068fc378daa952ba7f163c4a11628f55a4df523b3ef908390a45050565b6001600160a01b038216611d7d5760405162461bcd60e51b815260206004820181905260248201527f4552433732313a206d696e7420746f20746865207a65726f206164647265737360448201526064016105f1565b6000818152606760205260409020546001600160a01b031615611de25760405162461bcd60e51b815260206004820152601c60248201527f4552433732313a20746f6b656e20616c7265616479206d696e7465640000000060448201526064016105f1565b6001600160a01b0382166000908152606860205260408120805460019290611e0b9084906125c9565b909155505060008181526067602052604080822080546001600160a01b0319166001600160a01b03861690811790915590518392907fddf252ad1be2c89b69c2b068fc378daa952ba7f163c4a11628f55a4df523b3ef908290a45050565b606081611e8e57506040805180820190915260018152600360fc1b60208201526104e5565b8160005b8115611eb85780611ea2816126a9565b9150611eb19050600a836125e1565b9150611e92565b60008167ffffffffffffffff811115611ee157634e487b7160e01b600052604160045260246000fd5b6040519080825280601f01601f191660200182016040528015611f0b576020820181803683370190505b5090505b8415610fc457611f20600183612614565b9150611f2d600a866126c4565b611f389060306125c9565b60f81b818381518110611f5b57634e487b7160e01b600052603260045260246000fd5b60200101906001600160f81b031916908160001a905350611f7d600a866125e1565b9450611f0f565b828054611f909061266e565b90600052602060002090601f016020900481019282611fb25760008555611ff8565b82601f10611fcb57805160ff1916838001178555611ff8565b82800160010185558215611ff8579182015b82811115611ff8578251825591602001919060010190611fdd565b50612004929150612040565b5090565b5080546120149061266e565b6000825580601f1061202657506107b9565b601f0160209004906000526020600020908101906107b991905b5b808211156120045760008155600101612041565b600067ffffffffffffffff8084111561207057612070612704565b604051601f8501601f19908116603f0116810190828211818310171561209857612098612704565b816040528093508581528686860111156120b157600080fd5b858560208301376000602087830101525050509392505050565b80356001600160a01b03811681146104e557600080fd5b600082601f8301126120f2578081fd5b61190c83833560208501612055565b600060208284031215612112578081fd5b61190c826120cb565b6000806040838503121561212d578081fd5b612136836120cb565b9150612144602084016120cb565b90509250929050565b600080600060608486031215612161578081fd5b61216a846120cb565b9250612178602085016120cb565b9150604084013590509250925092565b6000806000806080858703121561219d578081fd5b6121a6856120cb565b93506121b4602086016120cb565b925060408501359150606085013567ffffffffffffffff8111156121d6578182fd5b8501601f810187136121e6578182fd5b6121f587823560208401612055565b91505092959194509250565b60008060408385031215612213578182fd5b61221c836120cb565b9150602083013561222c8161271a565b809150509250929050565b60008060408385031215612249578182fd5b612252836120cb565b9150602083013567ffffffffffffffff81111561226d578182fd5b612279858286016120e2565b9150509250929050565b60008060008060808587031215612298578384fd5b6122a1856120cb565b9350602085013567ffffffffffffffff8111156122bc578384fd5b6122c8878288016120e2565b949794965050505060408301359260600135919050565b600080604083850312156122f1578182fd5b6122fa836120cb565b946020939093013593505050565b600060208284031215612319578081fd5b815161190c8161271a565b600060208284031215612335578081fd5b5035919050565b6000806040838503121561234e578182fd5b82359150612144602084016120cb565b60006020828403121561236f578081fd5b813561190c81612728565b60006020828403121561238b578081fd5b815161190c81612728565b600081518084526123ae81602086016020860161262b565b601f01601f19169290920160200192915050565b600083516123d481846020880161262b565b8351908301906123e881836020880161262b565b01949350505050565b60007f416363657373436f6e74726f6c3a206163636f756e74200000000000000000008252835161242981601785016020880161262b565b7001034b99036b4b9b9b4b733903937b6329607d1b601791840191820152835161245a81602884016020880161262b565b01602801949350505050565b6001600160a01b038581168252841660208201526040810183905260806060820181905260009061249990830184612396565b9695505050505050565b60006020825261190c6020830184612396565b6000604082526124c96040830185612396565b90508260208301529392505050565b60208082526032908201527f4552433732313a207472616e7366657220746f206e6f6e20455243373231526560408201527131b2b4bb32b91034b6b83632b6b2b73a32b960711b606082015260800190565b6020808252602e908201527f496e697469616c697a61626c653a20636f6e747261637420697320616c72656160408201526d191e481a5b9a5d1a585b1a5e995960921b606082015260800190565b60208082526031908201527f4552433732313a207472616e736665722063616c6c6572206973206e6f74206f6040820152701ddb995c881b9bdc88185c1c1c9bdd9959607a1b606082015260800190565b600082198211156125dc576125dc6126d8565b500190565b6000826125f0576125f06126ee565b500490565b600081600019048311821515161561260f5761260f6126d8565b500290565b600082821015612626576126266126d8565b500390565b60005b8381101561264657818101518382015260200161262e565b83811115610b5b5750506000910152565b600081612666576126666126d8565b506000190190565b600181811c9082168061268257607f821691505b602082108114156126a357634e487b7160e01b600052602260045260246000fd5b50919050565b60006000198214156126bd576126bd6126d8565b5060010190565b6000826126d3576126d36126ee565b500690565b634e487b7160e01b600052601160045260246000fd5b634e487b7160e01b600052601260045260246000fd5b634e487b7160e01b600052604160045260246000fd5b80151581146107b957600080fd5b6001600160e01b0319811681146107b957600080fdfe9f2df0fed2c77648de5860a4cc508cd0818c85b8b8a1ab4ceeef8d981c8956a668747470733a2f2f6d657461646174612e6563696f2e73706163652f6974656d732fa26469706673582212203daf59608802dc0ed5082168abb92780d914036fb3d2c3849c4850e019133ef064736f6c63430008030033",
  "linkReferences": {},
  "deployedLinkReferences": {}
}